:020000040000FA
:100000000040002025B8010061B8010063B801007C
:1000100000000000000000000000000000000000E0
:1000200000000000000000000000000065B80100B2
:10003000000000000000000067B8010069B801007E
:100040006BB80100C56901006DBF01006BB801000C
:100050006BB801000000000025B901006BB8010079
:1000600081A20000D9C40100E1BD01006BB801000C
:100070006BB801006BB801006BB801006BB80100F0
:100080006BB801006BB801006BB801006BB80100E0
:100090006BB80100D5B40100A1B50100BDA30000FB
:1000A000CDA300006BB801000000000000000000BC
:1000B0000000000000000000000000000000000040
:1000C000054B0648033310B51B1A062B03D9044B06
:1000D000002B00D0984710BD180100201801002007
:1000E000000000000648074910B5091A8910CB0F17
:1000F0005918491003D0044B002B00D0984710BD6D
:1001000018010020180100200000000010B5074C65
:100110002378002B09D1FFF7D3FF054B002B02D02A
:10012000044800E000BF0123237010BD200100201F
:1001300000000000BCE90300094B10B5002B03D000
:100140000849094800E000BF08480368002B02D1B5
:10015000FFF7C8FF10BD064B002BF9D09847F7E713
:100160000000000024010020BCE903001801002069
:1001700000000000144B002B00D1124B9D46402282
:1001800092029A1A924600218B460F461148124A53
:10019000121A23F0DDFB0D4B002B00D098470C4BBF
:1001A000002B00D098470020002104000D000B48D0
:1001B00023F0DAF823F094FA200029002CF087FAD3
:1001C00023F0F0F8000008000040002000000000CC
:1001D0000000000018010020F82F00201D3602004A
:1001E0000139C9B2054B401880301970044A0378B0
:1001F0001370044AD25C044B1A707047D72D00204C
:10020000D82D002011650300D62D00200131C9B280
:10021000054B401880301970044A03781370044A63
:10022000D25C044B1A707047D72D0020D82D0020C7
:1002300011650300D62D0020074B984206D9074BC5
:100240001818074B4118C91808787047054B18183B
:100250004118054BF7E7C046A49200005263030023
:100260005B6DFFFF665303000083FFFF0300202246
:100270008033F0B504001A707F2000224F255F26DE
:1002800089B0A15C531C0A00DBB202406F2A28D956
:100290000A003240E11880310A701A007F2BF0D139
:1002A000BB4A137023001B22FF331A70E432019201
:1002B000531CDBB203936B46B6481B7BB6490370F5
:1002C000039BE31880331B780B705B2B0ED19B22B2
:1002D000019B0A700133DBB20370E254012009B0C4
:1002E000F0BD5F2AD6D90A002A40D3E72E2B13D1BE
:1002F0000232D2B20270A21880321278A448027080
:10030000A648825C0120024206D1019A0B701218A5
:10031000D2B20192A3546FE202209D4A13709F4A09
:10032000D25C104000D0ADE0002A19D199482032AB
:1003300003780A70E31880331A70019B0133DBB233
:1003400001936B461B790370019B782B01D8E25413
:1003500052E29B23019AA3546B461B7B0B70BDE7B3
:1003600016007F2552B2AE430E70002A03DB8C4A82
:100370008C4B1A60B3E7413B8B4ADBB28B49D25CB2
:10038000CB5C120213430293029B002101339BB208
:1003900018000293FFF750FF0306F5D5012301274C
:1003A00000267B4D2B7039000298FFF745FF7B1C20
:1003B000DBB2282868D1002E00D02F702B780133B3
:1003C000DBB2059305990298FFF736FF059B0133D1
:1003D000DBB22928F5D17F25049304990298FFF711
:1003E0002BFF049B28400133DBB23D284FD16A46E6
:1003F000694B127B1870674B00261A706A467B1C8B
:10040000DBB200931278624B039D1A700695631954
:1004100080331B78009902980793FFF70DFF079B25
:100420008342B1D1009B05990133DBB20093009A5E
:100430006B1CDBB28A422CD1002E01D0554B1D70B3
:10044000039D013FFFB2524B390002981F70FFF726
:10045000F3FE514E030600D504E14E4B7F21187088
:100460004E4B1B5C1A005BB28A433270002B14DACD
:10047000484B013DEDB21D70631980331B789842E3
:10048000DFD081E74A4B7EE71F0001268BE704930C
:10049000A3E71D0001260693B9E7307020281BD082
:1004A000232825D02E282CD0262832D040284ED0E4
:1004B0005E2856D02B285CD03A2800D00EE12026AA
:1004C00029002000FFF78CFE334A13783340137065
:1004D000B7D0304B1D78F3E729002000FFF780FEEE
:1004E0000023F356002B00DA4EE72A4B1D78A8E7CD
:1004F00029002000FFF774FE402233781342F4D124
:1005000042E729002000FFF76BFE33781B07ECD48D
:100510003AE729002000FFF763FE102233781340EA
:100520003370E2D11B4B1B78E118803109783170B0
:10053000482900D028E7013B1649DBB20B70E318CD
:1005400080331B789343432B00D01DE7CDE7290070
:100550002000FFF745FE0422337813403370C4D1E6
:1005600012E729002000FFF73BFE33789B06BCD43E
:100570000AE7084B013DEDB21D70651980352B78F7
:10058000452BB2D010229343492B00D0FCE6ACE7B8
:10059000D82D0020D72D0020D62D00201165030076
:1005A0005253030014000020976503007D6503008B
:1005B000A59200006B1C934ADBB21370E3188033E2
:1005C0001B7891490B70452B36D1A81CC0B223185B
:1005D00080331B788D4E33708D4EF656002E02DB25
:1005E000884B1D783FE010700B70522BF8D0532BC6
:1005F000F6D0442BF4D04C2B08D10335EDB2157056
:10060000651980352B78592BEAD0BDE6462B00D0F2
:10061000BAE6EB1CDBB21370E31880331B780B7067
:10062000552B00D0B0E60435EDB215706519803554
:100630002B784C2BD4D0A7E6492B00D0A4E6AB1CDA
:10064000DBB21370E31880331B780B704E2B00D095
:100650009AE60335EDB21570651980352B78472B76
:10066000BED091E6069D6A46009B0133DBB2009343
:100670001278664B1A70009B049A934200D19CE05A
:1006800019000298FFF7D8FD614B7F211B5C5D4F7D
:100690001A005D4E8A435BB238703270002B08DA64
:1006A0000135EDB2631980331B783D709842DAD082
:1006B0006AE63070202816D023281ED02E2826D097
:1006C00026282DD0402848D05E2851D02B2858D03D
:1006D00020263A2864D0252800D16BE74D4A4E4B9E
:1006E00000201A60FBE529002000FFF78FFD0023A2
:1006F000F356002B00DB73E746E629002000FFF7E6
:1007000085FD40223378134200D069E73CE629009A
:100710002000FFF77BFD33781B0700D560E733E649
:1007200029002000FFF772FD102233781340337048
:1007300000D055E73B78E1188031097831704829BD
:1007400000D021E60133DBB23B70E31880331B7825
:100750009343432B00D017E642E729002000FFF720
:1007600055FD042233781340337000D038E70BE690
:1007700029002000FFF74AFD33789B0600D52FE7BC
:1007800002E60135EDB23D70651980352B78452BB9
:1007900000D125E710229343492B00D0F4E51FE751
:1007A00029002000FFF732FD174A137833401370F9
:1007B00000D158E7134B1D78F2E700257F272E0064
:1007C00000990298FFF738FD03003B403D2B04D011
:1007D000019A0132D2B20192A354009A0132D2B2EC
:1007E00001060BD5002E03D06946084A097811701E
:1007F000054A1370069B0393039A59E5009201265C
:10080000DEE7C046D72D0020D62D0020D82D0020B1
:10081000116503005C5303001400002010B50400B0
:10082000431C02D002480AF065FE024B1C6010BD5A
:10083000C02E0020902E0020014A024B9A6470477F
:10084000C02E0020982E0020C3790248002B00D132
:100850000148704740F0020038F0020010B501F086
:10086000FFFB014810BDC046F0EC020010B508685F
:1008700001F0F6FB004810BDF0EC020073B50D006E
:10088000022836D1012601A968680DF0B3FB764233
:100890003400019BC318834212D101A928680DF0CE
:1008A000A9FB7342734162426241DBB2D2B2019949
:1008B00001F01AFD002820D11049114828F0F4FD5C
:1008C0000278722A01D0772A06D1611C0ED1723AC1
:1008D000544254410130DEE7622A01D0742A05D126
:1008E000711C03D1743A56425641F3E705480CF0A7
:1008F0008FF8012676423400CFE776BDBE6503004F
:10090000E0F70200B1650300184BF7B530CB0F00DC
:10091000160001281AD94B68154A934207D0990747
:1009200011D114491C688C420DD11C001D000228F5
:100930000CD0BB68934209D09A0704D10D4A1968BC
:100940001C00914202D000200CF022FA01A9386864
:100950000DF050FB019A01000023102028F079FED1
:100960002A00310023000CF00BF8FEBD982E002069
:10097000F0EC0200840F0300A3230021024A5B0075
:100980000248D1527047C046982E0020F0EC020079
:10099000A3230121024A5B000248D1527047C0469E
:1009A000982E0020F0EC0200A323044A5B00D35AE7
:1009B0000348002B00D103487047C046982E002002
:1009C00040F0020038F0020010B50FF0B1F8014815
:1009D00010BDC046F0EC020010B50C4C002808D148
:1009E000FC34236D18005A1C02D0180129F035F987
:1009F00010BD086805F0E4FBFC34031E044803DA6C
:100A000001235B422365F3E71B09FBE7982E0020D7
:100A1000F0EC020030B58DB00500684600F06AFCCD
:100A2000011E10D12A1D012028F002FD0122EB68D1
:100A300004005B1001335B001343EB6000F078FCB3
:100A400020000DB030BD0198054A0368934205D0DF
:100A5000044A00249342F3D000F072FC0024EFE734
:100A600094F802003CF60200044B0B6003684B60F4
:100A7000436808008B600123CB60704774CD02008F
:100A800010B50C0005F0B4FA006B00280ED0E30797
:100A900002D50368002B09D0A30702D54368002BB9
:100AA00004D0630706D58368002B03D102490348AD
:100AB00028F0FAFC10BDC046CD650300E0F7020047
:100AC000F0B50D008DB00400012128681700FFF774
:100AD000D7FF0600012C22D12B68012118000493B6
:100AE000FFF7CEFF80210700490008A825F005FE8A
:100AF000802400230A9E6400039307AB2200310088
:100B000004983D68A847431C28D107980B2800D0BB
:100B1000ADE0039B002B34D159480DB0F0BD68689F
:100B200005F04EFB030003900133D5D00124337B45
:100B3000234200D184E00027039E08A8310025F05D
:100B4000DCFD0594002E70D0310008A825F015FEBC
:100B5000011E1ED14B494C4828F0A6FC002810D09D
:100B6000039B1B180393844202D9241A3618C4E746
:100B7000802108A8490025F0EDFD802406006400CE
:100B8000BBE7039B414809933B7BDB0776D4404896
:100B900074E000230093320007AB286824F068FA61
:100BA000079B0400002B0ED008A8310025F049FE59
:100BB00007980B285BD1099B0393002B35D108A81C
:100BC00025F0BDFDA8E7864229D80A9B380004938A
:100BD00002239C46099E049B059ADB5D59B20029BD
:100BE00012DA19001F246246A143C0290CD0190053
:100BF000103C0322A143E02906D004329343F03B8A
:100C00001A00511E8A410432D719B74212D8039BE9
:100C10003800013B0393B742DDD31E0092E7311A3F
:100C200008A825F00EFE002CCFD1184808A90CF01A
:100C300053FD72E7F643039BF618F619070081E7A8
:100C4000039908A825F06AFD009707AB039A0A9953
:100C5000286824F00DFA079B002B0AD008A825F07D
:100C60006EFD079B06480B2B00D156E718000CF0D1
:100C7000B1F8337B09900548234288D008A9D6E70C
:100C8000F0EC0200EC6503002CF7020040E20200E9
:100C900034FF020030B50C0087B001210500206848
:100CA000FFF7EEFE022203A9606805F043FC049AF8
:100CB000022D06D9A06805F083FA049A824200D971
:100CC0000200002303990093206802AB24F0D0F9BE
:100CD000029B002B05D005480B2B05D018000CF00B
:100CE00079F843000120184307B030BDF0EC020052
:100CF000F0B589B00191019B040001211868FFF74C
:100D0000BFFE0700012C18D9019B5B685C10631CB7
:100D100013D0210004A825F0F0FC631C03D0631E4F
:100D2000002C2FD01C00012104A825F026FD061E52
:100D30000AD11B491B4828F0B7FB0124102104A845
:100D400025F0DBFC6442E8E70100019803AB0122D7
:100D500000683D68A847431C0ED103980B2809D1B1
:100D6000059B0193012B09D104A825F0E8FC0E484E
:100D700009B0F0BD0CF02EF800280CD1012104A818
:100D800025F05FFD3B7B0948DB0700D4084804A938
:100D90000CF0A2FCECE733780A2BBED1F2E7C04698
:100DA000EC6503002CF70200F0EC020040E20200C8
:100DB00034FF0200F0B51F0004000D00160085B0DE
:100DC0000221FFF75DFE03AB0097320029002000EF
:100DD00024F04EF9039B002B05D005480B2B05D0C2
:100DE00018000BF0F7FF43000120184305B0F0BDD9
:100DF000F0EC0200F0B50F00496887B0050016005E
:100E0000002901D0002A05D13900280024F0AEFACB
:100E100007B0F0BD0F321309C918019324F01BFA73
:100E20000F22A868B9687C68324000D11032019B5B
:100E30001E19254BF3185B00C3180393224B102097
:100E4000E3185B00CB189C46039B21000293002310
:100E5000801A0590002922D103986400041B1020F9
:100E6000821AD340184823808446019B5B00E41A11
:100E7000019B023463445A00200022F069FD002ED9
:100E800004D07300023BE35A002B1BD001216E609B
:100E90003A782B780A408B4313432B70B8E76046AF
:100EA00000880139034318000493059BD840029B36
:100EB00018800298049B02380290022040421B04D2
:100EC0008444C7E7013EDAE7FFFFFF7FF0B54B68D8
:100ED0001500526889B006000C00934201D22C0024
:100EE0000D000127227861683A4000D12A783A4003
:100EF0005118300024F0AFF9B368380001936368EB
:100F00002978029323781A0098430300A8684A407E
:100F10000490A0683A40039001988F43BC46059026
:100F2000029F68680299C01B01390690481C17D1BE
:100F3000029B5900019B5918002A02D001230B8003
:100F40000231019824F000F9012170602B78227899
:100F50005A4033780A408B431343337009B0F0BDD5
:100F60000398078812483F18FF18069B5B189942A0
:100F70001CD3049B1B881B18049802300490380073
:100F80006344584000936B46D883D88B009B8446BB
:100F90000598624402800230059003981B0C0230D1
:100FA0009C46120C3B0C03900139BFE7004BE6E76F
:100FB000FFFF0000F0B5060095B0069353680D00E2
:100FC000591C0492009324F046F9049B00215B68AD
:100FD000B0685A1C5200009322F0BAFC00237360E0
:100FE000049B28005B68591C009324F034F9049991
:100FF000280024F0BBF9AB686F680193069B9B68DF
:101000000393069B5B680293B3680793029BBB4202
:101010002DD82ED3039A3900019824F05EF90028C8
:1010200023D10123079A686013807360049B1A78A8
:10103000069B1B785A4001231A4214D0327813437E
:1010400033706B68002B0ED0012111A8494224F0A7
:10105000ABF911AA3100300024F0ADFB069A29004B
:10106000280024F0A8FB15B0F0BD002801DA002309
:10107000DBE7834A029B9B185B009C460022039B94
:10108000634405931B8800921AB2002A65DA002295
:10109000019B7C001A537B1C102709936B60019BFA
:1010A000A01C00991B180893791A019B0A910899B2
:1010B0008B4258D3059B009A1B8893400893029B50
:1010C000012B0AD91022039B00996344023B1B8821
:1010D000521AD340089A1A430892019B029A1C198B
:1010E000099B9B1A664A73609B18079A5B00D3188A
:1010F0000A93022362465B429B1A0E936B680B9322
:101100000B9A029B934239D313005D4A10219446F7
:101110000024019A63445B00D318009A891A019A4B
:101120009A4200D89FE07368002B07D0544A079971
:101130009A185200525A002A00D19EE06B68002B88
:1011400000D173E74E4A01999A185200525A002A68
:1011500000D06BE7013B6B60F0E7009A5B00013267
:101160009BB292B28FE71988009F0800B8400243F3
:101170001A800A9A0233D1408AB298E7A31E2088C7
:101180000D931B880004184308991BF0DDFA0E9B91
:101190000022E3180C931900039B05909C460992CA
:1011A0008C4212D823889A4234D3D31A5A42190C4B
:1011B0009BB222805A1E9341CA18002A2CD0039950
:1011C0000C9B8C4600210F0042E0099B009F180CED
:1011D00063461B88BB4018436B4609909F8C059B58
:1011E0005F430B889F4203D2D81B0F9090420CD8CC
:1011F000D31AFF187B420B80BBB23A0C5F1EBB4177
:10120000D218022302319C44CAE70F9B9A1A0A8023
:101210000022F6E79A1A22806A460A9B928A023BCB
:101220005A800A930B9B0D9C013B6B6066E7380C60
:1012300009906046009F0088B840099F07431888BE
:101240004118B8B24118022019808444090C0233B5
:101250009C42ECD823885918059B2180013B090C3E
:10126000521A0593A9E71A88009F100038418A4056
:101270002043188094B2023B51E7013B736052E770
:10128000FFFFFF7F436870B55A00002384680A4D52
:10129000A218944206D30278D20700D55B420120FF
:1012A0000B6070BD023AAB4203D816881B0433436F
:1012B000EFE70020F5E7C046FF7F000000487047D9
:1012C0000148E80110B504F07BFF80F31088014865
:1012D00010BDC046F0EC0200054B10B59A6C002A18
:1012E00004D00022986C9A6400F02AF810BDC04621
:1012F000982E0020C4600561466187614146C16146
:101300004946016251464162594681626946C1625D
:101310007146816000490847211300000020C04643
:10132000024B9A680260986000207047982E002057
:10133000024B9A6812689A607047C046982E002047
:101340000E4A9368002B01D129F0D2FE196858602B
:101350009160181CC468056946698769C169884637
:10136000016A8946416A8A46816A8B46C16A8D460E
:1013700081688E4601207047FEE7C046982E002007
:10138000074B5B69002B01D1180006E05A688242C6
:1013900004D8801A04308000C05870471B68F1E7F9
:1013A000982E002070B5144D04006B699868DB68B6
:1013B000834215D30230C00025F070F86B69002815
:1013C00003D1986840000BF00DFB5A68D9680360A0
:1013D0009B6852185B00836000234260C3606861B1
:1013E0006A69D3685068591C04339B000138D16086
:1013F00040189C5070BDC046982E0020074B4118E5
:10140000884204D3D8B2002800D1013070475A0175
:10141000D318027801305340F2E7C04605150000AA
:10142000034B044A5A6100229C331A607047C0463D
:10143000982E002068CE0200F0B585B001900E0015
:10144000FFF7DCFF144B02905C69002C01D12000F7
:101450001EE0270010373D00E3689B00FB18039354
:10146000039B9D4201D32468EFE72868029A037822
:101470009A420FD143789E420CD10230320001993A
:1014800022F0AEF9002805D1ED1B6068AD102818D8
:1014900005B0F0BD0435E3E7982E0020F0B585B027
:1014A00003900191FFF7C8FF002862D1324D019BE4
:1014B0002F009C37DC1C3B68002B18D02E002F4AD5
:1014C000A036126831680292A2188A420FD902002F
:1014D0006118180025F000F80290002822D1274B4F
:1014E00002001968386824F0F7FF029B3B602B006C
:1014F0009C331B68002B20D12600802C00D2802634
:1015000030002F0024F0CAFF9C37386000280DD12E
:10151000200024F0C3FF26003860002806D12000F8
:101520000BF060FA33681B193360E0E72B00A0333F
:101530001E602B000022A4331A602B00A4331A680B
:101540009C352D68A41801990398AD181C60FFF70D
:1015500055FF6B461B7928706B70019AA81C039984
:1015600022F064F90022019B2800EB189A70FFF723
:1015700019FF05B0F0BDC046982E00203C2F00207A
:10158000F7B51D0016000023070003600B603360F1
:101590002B60174B00915C69002C02D0154B9C42CC
:1015A00004D133682A68D3182B60F7BD3B68013338
:1015B0003B60E268009B94461B68009A0193634479
:1015C00013602200E36810329B00D3189A4207D3BD
:1015D000200005F061FA2B68246818182860DBE702
:1015E00002CA30684978033009183160EEE7C04616
:1015F000982E002068CE02000C4B70B55C69002C60
:1016000002D00B4B9C4200D170BD2600E36810361F
:101610009D007519AE4201D32468F0E704CE054958
:101620000232054826F01AFEF4E7C046982E002044
:1016300068CE020000660300CCF00200002803D050
:10164000012807D0002004E08B680448002B00D15B
:10165000034870478B685B001843FAE740F00200CC
:1016600038F00200044B88600B60044B08004B60AC
:101670000023CB607047C04688E502000B5F020084
:1016800000228168F0B5CB0F094C5B185B100E1976
:101690009A4201DB0748F0BDC568B11A9400890081
:1016A0002C196D5827682560C46801326750EFE730
:1016B000FFFFFF3FF0EC020070B583680D0041684A
:1016C00004008B4212D3C900C06824F0F8FE63689E
:1016D0000A495A00A3686260D21A013352189B006B
:1016E000E0609200C018002122F032F9A368E2689D
:1016F000591C9B00A16002489D5070BDFFFFFF3F39
:10170000F0EC0200F8B5070016004C10836803D512
:10171000E418E243D2171440A34200D21C000B4944
:101720003800FFF7C9FFBB68094A591E9B189B0088
:10173000181FFA688C4203DBA40016510348F8BD59
:1017400015580139D5500300F2E7C046F0EC02000D
:10175000FFFFFF3F70B50025040085601021C068C1
:1017600024F0ADFE04232900E0606360102222F023
:10177000EFF8014870BDC046F0EC020030B50C0037
:1017800085B0104B02AD043100930138022301955E
:1017900008F0A4FC23680C4C996801290FD9D8687B
:1017A0000A4B029AC91889004118A24200D10022AE
:1017B0002D79074B002D00D1064B24F0B4FB2000FF
:1017C00005B030BDA4DC0200F0EC0200FFFFFF3FDB
:1017D00038F0020040F0020070B50C680B00A16800
:1017E0000200002903D11949194827F05DFE20683D
:1017F000012A27D05A68002304F0BAFDE168A268E4
:1018000086008B19013A1D680436A260121A9200F4
:101810008919180022F04CF80021A368E0689A00AA
:101820001150616804290BD95B00994208D9490815
:101830008900E06824F043FE6368E0605B08636051
:10184000280070BD01225242D5E7C0460B8A030032
:101850003CF6020007B5009001910220694624F091
:10186000C8FB694601900220FFF7B6FF00480EBD95
:10187000F0EC020070B50E000D490500002426F0C2
:1018800025FCB3689C4204D328000A4926F01EFCBC
:1018900070BD002C03D00849280026F017FCF16821
:1018A000A30001225958280004F0BAFB0134E8E7EC
:1018B000BB8B030094D803001F8A030070B5032676
:1018C00004000D000E4029D1174B0A689A4225D119
:1018D00083688A6899184368994210D9043189004D
:1018E000C06824F0ECFDAA68A368E0609B181A1D8C
:1018F0009B006260C0181022310022F029F8A36812
:10190000E9689800E3681818AB689A0021F08EFF28
:10191000AB68A268D318A360044870BD29002000FA
:1019200024F070FBF8E7C04680DD0200F0EC020016
:101930000B4B70B5050003600C000800042900D2B1
:1019400004206860AC60800024F09BFD6A68E86059
:10195000121BA40092000019002121F0F9FF70BDB4
:1019600080DD02007FB50C00150012283CD005D8A0
:10197000052819D007283CD0002432E00300193B89
:10198000042BF9D893070DD1284B12689A4209D13C
:10199000AB6800938A68EB68C9680BF061FD244C62
:1019A00000281ED1234C1CE003231340E4D11F4A1E
:1019B0002968914238D1A368AA68981824F03BFBA3
:1019C0000600A368E1689A00C06821F02FFFA068B4
:1019D000F36880001818AB68E9689A0021F026FFC8
:1019E0003400200004B070BD11002000FFF766FF36
:1019F000F7E703A9100004F021FC0028BCD0039BEA
:101A0000002B01DA00230393A3680398584324F0C2
:101A100012FB0500C36804210093A268E068039BE1
:101A200027F035FE2C00DCE71C00DAE780DD020041
:101A300040F0020038F00200F0B504008BB00E0058
:101A400010000327002A32D10F4029D1654B0A68C4
:101A50009A4225D104AAA0680BF086FC002802D186
:101A600061480BF0C3F90599049BA268E0685D1A10
:101A7000521A9B00890041189200C01821F018FFEB
:101A8000A368AA00E818E3688000181852423900D9
:101A900021F05EFFA3685D19A56054480BB0F0BD4E
:101AA00007A9022007940896FFF796FEF5E7042A97
:101AB0002CD1394220D14B4B0A689A421CD107AA3B
:101AC000A0680BF051FC002805D107AAE168A068C6
:101AD00027F0F0FDE2E7079B0898C01A24F0ABFA64
:101AE0008368E1689A00079B05009B00C918C068DD
:101AF00021F09CFE2800D1E700233200A168206875
:101B000004F036FCE3688000C058C7E70F40374D4B
:101B100061D1344B0A689A425DD103AA02A904F04C
:101B2000F1FB07AA3100A0680BF01EFC002897D03B
:101B30000798029A089B86180193F61A002E28DD52
:101B4000A368F1186368994207D98900E06824F016
:101B5000B6FCA368E0609B196360029A079BA168CA
:101B60009B18F21A52180899E0689B0089004118E6
:101B70009200C01821F09CFE029B03999A00079BDB
:101B80009800E368181821F093FEA3689E19A660D8
:101B9000B0E7E368800003991818920021F046FE30
:101BA0000899A268E368521A8900019359180798A6
:101BB000029B9200C018019B8000181821F078FE4B
:101BC000A368B200F018E368800052421818390088
:101BD00021F0BEFED9E702003100200024F06CFAAB
:101BE00088E7C04694F302003CD50300F0EC020005
:101BF000F8B5224E3568686801281DD9AA68431EC9
:101C0000D15C0A2918D1002B03DD591E545C0A2C23
:101C100013D11C00844202D2115D20290FD0002B69
:101C20000FDC1218023AE31A14789B083A3C61421E
:101C300061415C18002C11D1F8BD0B00E3E70134C1
:101C4000E8E7611C8842ECD1591E0029E9D001392E
:101C5000575C0A2FF0D0202FF7D0E2E7084F04227C
:101C60003900280024F02DFD0421380010F0DAFF9F
:101C70003369013C04333361DCE7C0463C0100209A
:101C800034E5030010B520220021024821F060FE57
:101C900010BDC046F82E0020084B10B542681860F1
:101CA0000020986018750138D86008005A601A61E1
:101CB000996128F038FCFFF79BFF10BD3C01002024
:101CC000F8B503780400002B1DD00F4E306E0028AD
:101CD00004D0210022F0C0F8002814D0200022F007
:101CE000FFF8471C380024F0D9FB051E0BD03A0042
:101CF000210021F09BFD054B054A1968043B9960C2
:101D00009A42FAD13566F8BD982E0020102F002097
:101D1000F42E0020F0B5B74C02002068A568436897
:101D200085B00193002D00D0FDE0531E042B11D887
:101D3000019B61688B4200D195E0012A00D12AE124
:101D4000022A07D123696268934200D94DE101223A
:101D5000524288E0032A00D185E0042A00D12FE115
:101D6000052A00D107E1062A0ED12369019A934280
:101D7000AD416D42002DEADD236829009868236992
:101D8000C01810F04FFF1FE00B2A21D1019B2269E0
:101D9000991A24F056FD2368019A5B689A4204D987
:101DA00013002269981A10F075FF226823695168A0
:101DB0009068C91AC01810F035FF23685868236965
:101DC000C01A401B10F054FF23695D192561BEE75E
:101DD0000E2A13D1E368002BB9DB013BE360626894
:101DE000019B991A24F02DFDE368002B18DB1633B4
:101DF000814A9B00D318996820680FE0102A16D1F9
:101E0000E368062BA3DC5D1C7B4A17339B00D318C9
:101E1000996800299BD06368E560436024F0D6FC94
:101E200063682269D61A22685568ED1A0AE0152AF5
:101E30000CD12369626861689A1A24F00AFD23694B
:101E400062689E1A0127002E2FDCA4E70D2A0DD10F
:101E50006A4828F068FB206824F09DFC6368C0187D
:101E6000FFF72EFF0022100005B0F0BD01231B2A52
:101E700062D0082A01D07F2A20D12169626891426C
:101E800000D864E700238668B618F75C202F13D1CA
:101E900001339F188F42F8D30126032B00DD033650
:101EA000891B320024F0D5FC0127300010F0E0FE41
:101EB00023699E1B266178E00126F1E7092A28D1D3
:101EC000636822698068D11AC0184D4A03AB10F0CC
:101ED000F3F8061E00D13AE70027431C0BD1A06996
:101EE00028F021FB63682269D11A22689068C01823
:101EF00010F098FE4FE723692068F918039B01371B
:101F00005A1C03921A7824F08AFCBE42F3D13500A1
:101F100041E71300203B5E2B00D918E7216924F02C
:101F200087FC012537E7012D08D104234F2A03D070
:101F300002235B2A00D00023A36008E7022D20D1F2
:101F40001300303B092B03D803232275A360FEE660
:101F50000023A360412A00D152E7422A00D139E789
:101F6000432A00D101E7442A00D1EBE6482A12D0E7
:101F7000462A00D0EBE60027019B22693E009D1A0D
:101F80000EE00023032D29D17E2A24D1227D312A7F
:101F900001D0372A0DD100252F00236962689E1ACF
:101FA0000023A3609E4200DD7FE7002F00D1E1E621
:101FB000F1E61100FB2534392942DCD0332A0AD15D
:101FC0002169019B8B4206D9012224F042FC0025A5
:101FD00001272E00E4E700252F00FAE7042DABD1FE
:101FE000462AC8D0482AD6D0A6E7002501262F00C9
:101FF0005BE7C0463C010020982E00203A8B03008E
:10200000CCF0020080235B051869034B1B78434327
:102010008020C002C01A7047DA2D002080235B05A3
:102020001869034B1B7843438020C002C01A7047D5
:10203000DB2D002070B5084DC4012B680021181954
:1020400028F0B9F82868054B00197F3000781B7814
:102050008342F0D270BDC0465C010020D92D002023
:1020600010B5C3790400002B08D0064A03798179A2
:102070001068DB01C018013028F09DF8002323729E
:1020800010BDC0465C01002010B5124B01001A685B
:102090004379DB01D31818007F300478FF2C08D176
:1020A0000879C00112185278FF2A0FD0887990421F
:1020B0000CD08A799B180132D2B258787E2A01D08E
:1020C0008A7110BD00234C718B71FAE701204042E8
:1020D000F7E7C0465C01002070B5F8248025A40213
:1020E00023786D054D2B4CD12B698020E41A2B6988
:1020F000C002E41A2969001B1AF026FB2B4B2C495D
:1021000018702B69E21852185D421540294B2A4A73
:102110002A49D31A80225B18520511699D4234D393
:102120008020C002401B1AF00FFB254B641B187067
:10213000E411244BE4B21C70A12001230025224AA3
:1021400022491360C0004D604B68002BFCD013582F
:10215000DBB2A342F7D21E4901330B700123536057
:10216000FFF750FF037805001A4CFD2B0FD1802399
:102170005B051869184BC009C018C00128182060F9
:1021800070BD80242B69E402AFE76D18C5E7FFF747
:1021900045FF0378803DFD2B01D12560F0E7FFF777
:1021A0003DFFFD2128F007F8F7E7C046DB2D0020B2
:1021B000FF87FFFF0000002018010020C8E903008E
:1021C000DA2D0020D92D002000D00040FCD00040A6
:1021D000DC2D00205C010020FFFFFF01F7B5254B3F
:1021E000254F1A78254B14001B7839680133E0011C
:1021F000405CFF2839D00134E4B29C4200D1012474
:102200009442F4D1802300265B051B69DB0900930F
:10221000E30101933B68E2019D182A7828005342AC
:102220005341F61827F0DDFF0023002815D1134B8A
:1022300001341B78E4B201339C4200D101240D4BE0
:102240001B78A342E4D1072E11D923F04CFFC6E737
:10225000DA01AA5C002AEAD10133009A9342F7D14D
:102260003868019BC01827F0B2FF2000FEBDFF2494
:10227000FBE7C046DC2D00205C010020D92D0020AA
:10228000F7B507000D0001240E4B1B7801930E4B90
:102290001E68019B9C4202D9FF242000FEBDE10183
:1022A00071180B78FE2B09D18B78AB4206D1033124
:1022B0002A00380021F094FA0028EED00134E4B26C
:1022C000E7E7C046D92D00205C01002010B5054A83
:1022D00003791068DB01C0188178002203300BF00D
:1022E00031FA10BD5C010020F0B585B002900D0000
:1022F00016000393782949D8FFF7C2FF0400002E87
:102300003CD0FF2801D0FFF795FEFFF767FF0400E0
:10231000FF2803D11E491F4827F0C6F81E4FC001F1
:102320003B680190FE21181827F045FF3B68019A91
:10233000E9B29818023027F03EFF3868019B2A0066
:10234000C018033002990EF0A5FE0C2024F099F875
:10235000039A0300002A17D0104A1A600E4A1C7113
:1023600012685C71E4011419A278DE7102329A716C
:1023700001221A726A46127B5A7202E03300FF2869
:10238000E3D1180005B0F0BD054AE6E70023F8E701
:10239000228A0300E0F702005C010020C4CB0200A7
:1023A00070CC020007B501A90BF024FE0199FFF7DC
:1023B00067FFFF2803D10449044827F075F8FFF7A9
:1023C00039FE03480EBDC046BE650300E0F70200BB
:1023D000F0EC0200F7B50192027A05000091002AA4
:1023E00002D125480AF014FBC479002C06D1234AF7
:1023F00017680279D201D25D002A04D10922012096
:102400001A604042FEBD69797E22C9017918080030
:102410007F30AB790078D21AFF2809D12879C00122
:1024200038184078FF2819D0C01A824200D902001B
:102430000198061B964200D91600002E19D0009A6A
:1024400001331019C918320021F0F0F9AB799B194A
:10245000DBB27E2B04D0AB71A419D4E70022E7E7EE
:102460000023AB716B79DB01FB187F331B786B7139
:10247000F2E72000C6E7C046388A03005C0100206E
:10248000F0B585B00393037A04000192002B02D1CA
:102490002F480AF0BDFAC379002B34D02D4A0379B6
:1024A0001268DB019B5C002B2DD0019B02910093F5
:1024B000009B002B2CD07E22A379D71A009A97423A
:1024C00000D917006079234E0133C001C01833686A
:1024D0003A00181802990EF0DDFDA379DB19DBB282
:1024E0007E2B33D10023A371FFF778FE0500FF2870
:1024F00011D12079FFF79EFD002323721C23039A3C
:1025000013601D3B03E00923039A13600A3B019308
:10251000019805B0F0BD60793368C0011818290032
:102520007F3027F048FE3368ED015819617927F0B4
:1025300042FE62793368D2019B187F331B78637146
:10254000029BDB190293009BDB1BB0E7A371F7E74B
:10255000388A03005C010020002170B5080023F0D8
:102560008DFD012405000C4B1B78A34201D22800ED
:1025700070BD0A4AE3011068C0180378FE2B08D129
:102580008178002203300BF0DDF801002800FFF70E
:1025900093F80134E4B2E6E7D92D00205C01002075
:1025A00073B501A90BF026FD0199FFF769FEFF281D
:1025B00003D10E490E4826F077FF00257E260D4BED
:1025C0001C68C301E31859789B780233DBB2C2015F
:1025D000A2187F321078FF2804D1C81A401927F0BA
:1025E0003CFB76BDF31AED180023F0E7BE6503004F
:1025F000E0F702005C0100201FB5034A034B26F000
:10260000EBFF05B000BDC04689200000612000003E
:1026100073B50600194D0C00280021F081FA310035
:10262000174821F0F7F9174821F07AFA164821F0F7
:1026300077FAFF239B00E61821787F2901D0B44266
:1026400006D1280021F06CFA104821F069FA73BD18
:10265000A37850290CD80E4A505C0E4A525C019364
:102660006378009303000C4821F0D4F90434E3E7C5
:1026700062780A4821F0CEF9F8E7C046088B0300DB
:10268000358B03003D8B0300C68A0300E48A0300F8
:10269000EDDC03009CDC03005E8B0300818B0300F8
:1026A000F0B51D008BB007901B481600089121F073
:1026B00037FA2900194821F0ADF9194821F030FA0C
:1026C000184821F02DFA0024AC4204DB124821F016
:1026D00027FA0BB0F0BD089B375DA00007991818CA
:1026E00003788278095D049707689B063F037F0E95
:1026F0000397C7789B0E09933B09029300883F0715
:10270000C004400E3F0F019012090097099B064834
:1027100021F080F90134D7E7088B0300558A0300C4
:10272000828A0300B48A0300E68A0300002803D0EB
:10273000012807D0002004E08B680448002B00D15A
:10274000034870478B685B001843FAE740F00200CB
:1027500038F00200034B48600B60002308008B60D8
:10276000CB60704724DE02007FB504000122080020
:1027700001A903F0DFFE0022217940200FF0E2FDE5
:1027800001000500029819F0DFFF636806001A0ACD
:10279000904217D9A368C1186943E06823F08FFEFF
:1027A0002379E0602A00A06863606843E3687243AD
:1027B0001818019921F03AF8A36805489E19A660F7
:1027C00004B070BD121A1202DBB21343EAE7C0462E
:1027D000F0EC0200F7B5FF27456804000191BD4306
:1027E0001DD101792A0040200FF0ACFD636806007E
:1027F0003B408027A1683F011F4308314143676088
:10280000E06823F05CFE6368E0601A0AA368013A9E
:10281000013372435E432900801921F099F8207931
:10282000019BA268E1680FF0F1FEA3680348013341
:10283000A3606368013BFF3B6360FEBDF0EC0200F8
:10284000F8B5002207000D00010040200FF07AFDCE
:102850000600102023F015FE074B0400012F00D0C6
:10286000064B28002360FBB2A5607043636023F031
:1028700008FEE0602000F8BDBCDE020080DE020041
:1028800070B506008AB00C00150012285CD003D881
:10289000052826D0002454E01B2800D16CE01F2816
:1028A000F8D1012207A9280025F0A1F80323002868
:1028B0004FD01C4213D13B4B22689A420FD10122C8
:1028C00004A9200023F076FC0123079A00930599C0
:1028D000089B049826F075FF334C002831D1334C07
:1028E0002FE0012204A9200023F064FC280001222B
:1028F00007A903F01FFE069B002203936B464020AE
:10290000197B0FF01FFD01000600089819F01CFF4D
:10291000069BA16803936B4641180500187BFFF7DF
:102920008FFF059B04001A000499C068039320F0F0
:102930007DFF2A000598E36872431818079920F074
:1029400075FF20000AB070BD11002000FFF70CFFDA
:10295000F7E7EA070DD41D4203D1154B2A689A42C6
:1029600007D003232B40022BB9D1124B1D40062D5B
:10297000B5D011480AF03AFA012204A9200023F048
:1029800019FC012207A9280025F031F80028A6D05B
:10299000089B059A00930499079B300026F0ADFE32
:1029A0009AE7C046BCDE020040F0020038F00200A8
:1029B00034030300070080FF3CD50300F0B5050099
:1029C00087B00E00012808D08B0726D10B68264A55
:1029D000934202D0254A93421FD1012203A930001D
:1029E00025F005F8002818D00022290040200FF01B
:1029F000A9FC01000700049819F0A6FE06000100DA
:102A00002800FFF71DFF320004007A430399C068D5
:102A100020F00CFF200007B0F0BD300003F0EAFC0E
:102A2000071E00D0471039002800FFF709FF0021DA
:102A30000400300009F0B8FB00260090009809F06F
:102A400015FC031EE6D0002F04D119002000FFF76B
:102A5000C1FEF3E7721C0192E168320028000FF01A
:102A6000D5FD019EEAE7C04634FF0200BCDE02004D
:102A700070B50E7904000D00012E0DD1194925F015
:102A800025FB3300AA68E96820000AF0C1FD164959
:102A9000200025F01BFB70BD3200144925F0DEFB41
:102AA000AB68002BF3D01249200025F00FFB002665
:102AB000AB689E4204D30F49200025F007FBE6E7F0
:102AC000002E03D00C49200025F000FB3200E968FD
:102AD00028790FF05FFC01220100200003F0A0FA2A
:102AE0000136E5E7A28B03002D930300AE8B0300B4
:102AF000B98B030094D803001F8A030070B505004A
:102B000086B0161E44D003240C402DD1214B0A68F8
:102B10009A4229D103AA80680AF026FC002802D133
:102B20001D480AF063F92000042E1BD122002979E8
:102B300040200FF007FC049B06000093039B2879BC
:102B40000193019A009B991AFFF77AFE04000399FA
:102B5000049AC068521A71437243EE68711820F0EB
:102B600065FE200006B070BD0A000023A968286831
:102B700003F0FEFB02002879042E03D1E9680FF070
:102B800009FCEFE73300E9680FF040FD0348E9E78F
:102B90001000E7E794F30200BD8B0300F0EC0200A5
:102BA00037B50C00110000221D0000920123200007
:102BB00007F064FA002C04D121000120FFF740FE49
:102BC0003EBD2968CB0705D48B0713D10B4B0A6890
:102BD0009A420FD1080003F0F3FA0100050001202A
:102BE000FFF72EFE04002A000021C06820F0B0FE8E
:102BF0002000E5E70120FFF7E1FEE1E734030300F1
:102C000073B501A90BF0F6F9019B06001748502B8C
:102C100017D88020400023F034FC154C0500230019
:102C2000943318600023019A93420CD15B22280050
:102C3000EA54FDF71BFB2B00002808D194342060D8
:102C40000C4809F0E5FEF15CE9540133ECE75A1B4E
:102C50000133591E09789B29F9D12900064826F02D
:102C6000CFFD00239434236076BDC046FD8B030066
:102C7000982E00200B8C030040E20200F0B58BB0D0
:102C80000600080011001A0010AB1F78324B05AD8A
:102C900001950093052307F021FA9120000123F00C
:102CA000F0FB2E4B04A9186002AB1B7B47604370FE
:102CB0002B792B4F03702B7A040083702B7BC3700E
:102CC0002B7C30003B600BF095F90025254B0390E1
:102CD0000C201D6023F0D5FB234B0600036010F091
:102CE0004DFDB06010F04AFD204B214A1860214B89
:102CF00011001D70204B70601D70204B30001D6056
:102D00002B0010F011FC2000049A039927F0CCFA54
:102D100020000FF0BDF80400A84207D110F00AFB14
:102D20000E4B1C60164B186809F072FE0122154B01
:102D30001A7010F01DFD0028FBD1134B943318605E
:102D40003B68002B04D00D4B1048196820F062FE40
:102D500007480BB0F0BDC04630DF02002C2F00202A
:102D600058010020640100207CDF02006001002087
:102D7000F0EC0200DF2D0020DD2D00206801002096
:102D800014000020DE2D0020982E0020EE8B030082
:102D900000220D4910B50B78DBB2934210D10B4ADB
:102DA0001478002C02D001240C701370084B1B788F
:102DB000002B07D0074A136820331360064B1A68AC
:102DC000100010BD8268FBE7DD2D0020DE2D002005
:102DD000DF2D00206401002060010020D2235B0071
:102DE0005843134AF0B51368000C984206D2114CB0
:102DF0002368013323601368203B13601F23050001
:102E000001270D4E9D431468A5420BD803401A1D9F
:102E1000202A00D92022094C2468934204D3084B6D
:102E20001860F0BD3770EEE7E51829710133F4E75B
:102E30006401002068010020DF2D002060010020D7
:102E40006C010020F8B5124A0D00124B1249904255
:102E50001AD0C4688C4203D0012428602000F8BD39
:102E6000406B002812D004689C42F0D10600002478
:102E700047680836BF00F719BE42EFD2290001CEDD
:102E8000FFF7E0FF2418F7E70024E7E70400E5E791
:102E9000C4E5020008EC02008D2F0000F8B5050023
:102EA0000C00AB68002B0AD0344AE168914206D08E
:102EB000E358002B03D00422EB681A60F8BDA06B26
:102EC000002822D06B680022D90006230430194361
:102ED00005F0AAFE021E18D02B7C002B06D04268FB
:102EE0000020EB68296809F087F8E7E72B68181ECF
:102EF00007D02249E6688E4203D021498C4200D097
:102F00001869EB6852682100EDE72B68002B14D19B
:102F1000636B002BD2D01B4A1968194F1C009142D9
:102F200008D15E68184B0834F618B600A619B442EA
:102F300017D32468BC42B4D1C0E72A7C002AE7D169
:102F40000E4AE1689142E3D00D4A9442E0D01869FC
:102F5000EA68696809F0AAF8EB681B68002BD7D00B
:102F6000ACE72168B94201D10434E0E72800FFF75B
:102F700095FFEB681B68002BF6D09FE78D2F0000B4
:102F8000C4E5020008EC0200FFFFFF3FF0B58FB080
:102F90000E0005A9019202930700FFF753FF051DDC
:102FA000AD00280023F06DFA0400002180C024F059
:102FB000B4FF2A002000103A1030002120F0C8FC95
:102FC000012E05D1029B1B680393042B00D186E0E0
:102FD00007AD08220021280020F0BAFC414A09A8C8
:102FE000002342600C2239008260C560037409939B
:102FF000FFF754FF079804282ED10598029BC56857
:10300000019A3100A8472061200002F0F1FF8742B9
:1030100065D10023344A390009A8089307930B931C
:1030200009940A92FFF73AFF079B002B57D00198AB
:10303000304336D107AA010026F0FAF905002B4BE0
:103040009D424CD0280024F0BBFC294902002948AD
:1030500008F0F2F9FEF774F90028D5D0019A32434E
:1030600006D106AB0121069708F0A8FF0400CBE7C4
:10307000019B5C00A4190134A400200023F001FA94
:10308000221F0390029980C020F0D0FB711C039B8B
:10309000019A286808F092FF0400039823F020FAB0
:1030A000B2E7019B5D00AD190235AD00280023F0A9
:1030B000E8F92A000700079B029903600393089B25
:1030C000083A4360083020F0B1FB3A000199300023
:1030D00026F0AEF90500380023F002FAAFE7200031
:1030E0000FB0F0BD450200003D020000F0EC020010
:1030F000728C030048F90200F0B5146889B017001B
:10310000002C0ED1436803AD82686960596B03924D
:10311000AC60EF602C74002905D111492800FFF73D
:10312000BDFE09B0F0BD0F4B0A689A4210D14B6842
:1031300008310E000193019B9C42EED0A300F15890
:103140002800FFF7ABFE3B68002BEAD10134F2E721
:103150002800FFF7A3FE3B68002BE2D1DDE7C04665
:10316000C4E5020008EC020010B54A68014925F0E8
:1031700075F810BD6C8D0300F0B58BB004000E0027
:10318000150000210822684620F0E2FB14220021ED
:1031900005A820F0DDFB202307936B4605940893D8
:1031A000002D10D1154B216805A80693FFF776FE78
:1031B0000221009F042F13D12A003100206903F05F
:1031C00087F90BB0F0BD042D01D10D4BEBE7932334
:1031D00021689B0005A80693FFF760FE0321E8E73E
:1031E000381EEED002AB002202940396049508F03C
:1031F000E5FE042DE5D00348E3E7C04633020000B6
:1032000039020000F0EC0200F0B51F4B8BB08200D9
:10321000D35803AF0C0008220021060038000193A8
:1032200020F096FB019B05AD6B601423AB6000237F
:10323000280021680594EF602B74FFF72FFE039898
:10324000042805D12169300008F046FE0BB0F0BD1E
:1032500000280AD0210026F0E3F8022EF6D102F071
:10326000DBFF440001202043F0E7022E01D00020C4
:10327000ECE7064B216828006B60FFF70FFE3B6808
:10328000002BF4D16400EDE750E1020035020000AC
:10329000F0B506008BB00C00171E3CD0294B08225D
:1032A000002103A8019320F053FB019B05AD069379
:1032B0000823079303AB08930023216828002B748D
:1032C0000594FFF7EBFD039B002B08D1002F06D1DF
:1032D0001C4B216828006B60AF60FFF7DFFD03988F
:1032E00004281CD1206902F083FE174BC2689A4261
:1032F00013D1002F07D02368586822F0F9FD010090
:10330000300024F0E3FE80223A432169300002F0CD
:1033100087FE0BB0F0BD0D4BC1E73A00F5E7002882
:1033200005D0210026F07CF800220100EEE7200005
:1033300024F046FB230002000549300024F08EFFF4
:10334000E7E7C0464A020000F9B200004D02000063
:10335000218C030070B504000D000B4924F0B6FE6B
:1033600069680022200002F05BFE0849200024F07A
:10337000ADFEA9680022200002F052FE04492000A0
:1033800024F0A4FE70BDC0462A8D03001F8A0300EE
:10339000778D030010B5C468002C06D1426804493B
:1033A000044808F049F8FDF7CBFFA04710BDC04620
:1033B000338D030048F90200F0B589B001AE040076
:1033C00008220F003000002120F0C2FA104B03A8A1
:1033D00043600025242321688360C660057403943C
:1033E000FFF75CFD019B1800AB4208D0042B08D10D
:1033F000206902F0FDFD3900436A2069984709B051
:10340000F0BD32002900280026F012F8F7E7C04688
:103410003E020000F0B5154B89B016008200D55869
:103420000C000C2200210700684620F091FA1823B6
:1034300003A84560836000256B462168C360039440
:103440000574FFF72BFD009B042B06D13200216988
:10345000380009F0E5FA09B0F0BD181EFBD06A4645
:1034600029000120029625F0E3FFF4E7C8DF0200FF
:10347000F0B517008C228DB00400920007A84260BE
:1034800003931022002305AD0E0021688260C56001
:10349000037405936B600794FFF700FD05980028FF
:1034A00009D1200024F08CFA0B4902000B4807F0E8
:1034B000C3FFFDF745FF039B042806D13A00310006
:1034C000206908F07BFD0DB0F0BD009332003B0099
:1034D000696826F011FBF6E7568C030048F90200F4
:1034E000F0B50D0085B001A907001600280002AA5A
:1034F00024F0A8FC0023019902988B422CD13C2097
:1035000022F0D1FF2A4B019A03602A4B040083600A
:10351000294B4760C360294B0361294B4361294B09
:103520008361294BC361294B0362294B4362294BB9
:10353000C362002A06D0029B1968096B0163012A45
:1035400018D94563A66303A92000FFF77BFC012877
:1035500013D9214809F01CFC9A008258D468002C29
:1035600006D152681D491E4807F066FFFDF7E8FEC8
:103570000133C2E71B684363E4E7A36B0022181D15
:10358000184905F051FB051E0ED0032243681A406E
:103590000AD11968144B4968994205D1031D0121CC
:1035A000124822F0ADFE6860200005B0F0BDC046B4
:1035B00014E10200913200008D2F000071340000F0
:1035C00009320000153400007562020079310000F4
:1035D000B9330000A9630200FC8C0300D38C030004
:1035E00048F902002E120000AD0200009CE002002B
:1035F00037B50D001C000023110000930122033396
:10360000280006F03BFD012D04D0032D06D007480D
:1036100009F0BEFB206802F0EBFC3EBD20680AF01A
:10362000B3F8A2686168FFF75BFFF6E7508D03000F
:103630001FB5064B0A0001934B6802938B6801008B
:1036400001A8039308F064FD05B000BDD8E00200B6
:10365000F8B50D0003261449144AA8421ED00300F1
:1036600033401DD104688C421CD1406B002816D019
:1036700003689342F1D1040047680D4B0834FF18EA
:10368000BF00E719BC4201D32068E4E729002068A5
:10369000FFF7DEFF002802D10434F3E70120F8BD74
:1036A0000020FCE71800FAE714E1020008EC020031
:1036B000FFFFFF3FF0B585B00500019108008B07C3
:1036C00017D10B68134A93420BD10123029301AB2C
:1036D00003930024029E039FB4420DD10E4805B00F
:1036E000F0BD0E4A934204D103AA02A924F0AAFB1A
:1036F000EFE70B4809F04CFBA300F958094B99423E
:1037000006D02800FFF7A4FF002801D10134E3E729
:103710000548E4E714E1020038F0020008EC02007A
:103720009A8C0300C4E5020040F0020010B5830744
:1037300003D1054B02689A4202D0044809F028FBE5
:10374000FFF7B8FF10BDC04614E10200338C030040
:10375000030010B50548002B03D125F03DFCFDF713
:10376000EFFD096825F03EFCF9E7C0460CF90200C0
:1037700010B50348096802F077FC024810BDC04646
:10378000CCF00200F0EC0200044B88600B60044BAC
:1037900008004B600023CB607047C04688E50200FC
:1037A0004F64020013B50400080001A90AF004F8F0
:1037B000002C03D0012C07D0002004E0019B054819
:1037C000002B00D1044816BD019925F0C4FB400030
:1037D0002043F8E740F0020038F00200F0B585B071
:1037E0000400080003A9150009F0E6FF0600002DFB
:1037F00007D10300039A2F49200024F02FFD05B0C4
:10380000F0BD039B0200C318002101200193019B1E
:10381000934206D82727002900D0053F3A002649C1
:103820001AE01378272B08D0223B5D426B41DBB2B4
:103830000132002BEBD02727F0E700230100F7E748
:10384000300025F055FB0500300025F06CFB06002C
:10385000AF4205D13A001949200024F0FFFC14E0E2
:1038600017495C2D0ED02B00203B5E2B01D82A007F
:10387000D5E714490A2D05D013490D2D02D0092D85
:103880000CD11249200024F021FC019BB342D7D86F
:103890003A000949200024F0E1FCB0E7FF2D02D8EE
:1038A0002A000B49D8E70B4B2A000B499D42D3D97C
:1038B0000A49D1E7C18D0300C78D0300C68D0300FF
:1038C000CA8D0300CD8D0300D08D0300D38D03007E
:1038D000D68D0300FFFF0000DD8D0300E48D0300A3
:1038E000F7B51F0008AB1D782A4B0C001600984254
:1038F00007D12B003A00310002F03AFD24182000D5
:10390000FEBDFB0714D57F100197019BA219002B68
:103910002BDA00203F260127013A94421AD90028C9
:1039200000D00193002DEAD11B491C4825F0BCFDB5
:1039300001A9380002F082FC0028E6D1380024F00A
:103940003FF817490200174807F076FDFDF7F8FC2D
:103950000A00E2E71178B143802901D03800013331
:10396000511E002BF4D11400C9E700213F2601208D
:10397000944204D3002900D001931400D2E7002B15
:10398000BDD001342178B1438029FAD0013B010038
:10399000EEE7C04634FF0200A78D03003CF60200AC
:1039A0007F8D030048F90200F0B587B006000D00D6
:1039B000170002F01DFB02A90400300009F0FCFE14
:1039C0000600042F4FD1AB0736D1284B2A689A4204
:1039D00032D105AB04AA03A9280025F081FA059B82
:1039E000234FBB4204D0032B02D0224809F0FEF93A
:1039F000039B3500BB4207D001223100009220001A
:103A0000029AFFF76DFF0500049BBB4211D0012213
:103A1000310000922000029AFFF762FF06000E209C
:103A2000B54204D8721B2900200025F0E9FE07B03A
:103A3000F0BD029BF618F2E70023029A00933100D2
:103A40002B002000FFF74CFF0278012153B2002B1E
:103A500002DA40231A4203D1012209F073FEE6E79D
:103A600001315B08F6E70020E1E7C04694F302006D
:103A7000F0EC0200BD8B0300FF230322DB05CB1813
:103A800010B59343042804D818F040FE06030F0431
:103A900016000021080010BD0021181C19F014F8B0
:103AA0000A490028F6D00A49F4E7181C19F088FFE3
:103AB000012140000143EDE7802109065B18022146
:103AC00093431943034BC918E4E7C04640F0020092
:103AD00038F0020000008080FF23DB0510B50400F1
:103AE000C81803239843002386B00193063300933C
:103AF0001022613302A906F081F802A9200024F007
:103B0000E5FA2E2102A820F039F900280FD165210D
:103B100002A820F033F9002809D16E2102A820F074
:103B20002DF9002803D10349200024F0CFFA06B074
:103B300010BDC0467C8D030030B50C001100002282
:103B400085B01D0000920123200006F097FA002C9A
:103B500023D02868124B0340062B06D003242042B2
:103B60000ED1104B02689A420AD103A90AF042FA18
:103B700000220399009213000CF096FC05B030BDB2
:103B800003002340022BF9D002F07EFB0300022049
:103B9000A3431843044BC018F0E70448EEE7C046BF
:103BA000070080FF40E20200000080800200808069
:103BB000F0B5050087B01000019102F065FB041C10
:103BC0000390681F182800D9BDE018F09FFD0D1262
:103BD0001F24333E6F81BCBCBCBCBC0D121F243300
:103BE0003E6F9FA8ADB2B7000198211C19F092F862
:103BF00003E0211C019819F02FFD01900323019887
:103C0000524A9843013B03439B187CE0211C0198D6
:103C100019F002FCF1E70021201C18F055FF0028E4
:103C200003D04B494B4825F03FFC03A901A822F0E3
:103C300086FCE3E70021201C18F046FF0028F0D1A5
:103C4000211C019819F0F8F9D7E70021201C18F081
:103C50003BFF0028E5D1211C01981CF0D1FA00217E
:103C6000041C019018F030FF002807D0039A0023AD
:103C7000002A01DA80231B060193BFE70021201CE4
:103C8000039E012718F026FF002800D1071C002101
:103C9000301C012518F01EFF002800D1051CFFB2C2
:103CA000EDB2AF42AAD0311C201C9FE7019D00213C
:103CB000281C18F009FF002805D00021201C18F04E
:103CC00009FF0028ADD1211C281C1CF07DFB94E7C6
:103CD0000021201C18F0F8FE0028A2D103A901A899
:103CE00022F02DFC03220220019B18499343034339
:103CF0005B180493039B934303435B1804A9059348
:103D000003F058FF0300180007B0F0BD0199201C14
:103D100018F0F4FE104B0028F5D1104BF3E7019991
:103D2000201C18F0D7FEF5E70199201C18F0CCFEF6
:103D3000F0E70199201C18F0EBFEEBE70199201C3D
:103D400018F0D2FEE6E70023DDE7C04600008080E1
:103D5000EB8D0300FCF9020040F0020038F0020095
:103D6000F0B50D00002785B0110003901E0028005B
:103D7000104B0222009706F081F9A81C800022F067
:103D800080FB039B040003606B1E3D0003934360B4
:103D900033688360039B9D4202D3200005B0F0BDD1
:103DA0000135AF00F059002108F0FEF9E719B860BD
:103DB000F0E7C046FFFF00007FB51D00002401238F
:103DC00006000094080011001A0006F057F902AA34
:103DD0000E49286808F06AF9029BA34206D002AA9D
:103DE0002100200025F024FB04B070BD0C2022F03F
:103DF00048FB06602B6804004360286802F052FB11
:103E000002F0DEF9A0602000EEE7C0464B020000A1
:103E100070B50500140022F070FC024B2560636051
:103E200070BDC046C366020010B50C007F2906D8DD
:103E3000012122F0A2FC002800D0047010BD224B0A
:103E4000994210D8022122F098FC0028F6D0402395
:103E5000A2095B42134303703F2323408024644242
:103E60001C434470EAE7194B994214D8032122F00D
:103E700084FC0028E2D02023220B5B4213433F2125
:103E800080220370A30952420B400C40134322438B
:103E900043708270D2E7042122F06FFC0028CDD05D
:103EA0001023A20C5B4213433F2103708023220B9B
:103EB0005B420A401A434270A2090A400C401A436E
:103EC0001C438270C470B9E7FF070000FFFF0000C9
:103ED00007B5034B00906846019305F08BF907BDC9
:103EE000C3660200F7B505002C200E0017000193F1
:103EF00022F0D9FA0400057086608781072D01D071
:103F0000012D10D1337872780A3B1B021343E381F1
:103F10006B461B79202063750423638422F0B1FA79
:103F2000A0622000FEBD014B5B5DF0E7FC8D03004D
:103F300010B54A68014924F091F910BD6ECD030017
:103F4000F8B5050010200C001F00160022F099FAA9
:103F5000054B44608460A4190760C4606B60034B28
:103F60002860AB60F8BDC046656902007B6902004D
:103F700010B54379012B03D1C06A24F0A1F910BD1B
:103F80000B00C26A0249006B24F0C4F9F7E7C0468F
:103F900074F3020010B54379012B03D1C06A24F0F9
:103FA000A0F910BD0B00C26A0249006B24F0B2F9FF
:103FB000F7E7C04684F3020010B54379012B03D123
:103FC000C06A24F08EF910BD0B00C26A0249006B72
:103FD00024F0A0F9F7E7C04664F302007FB50B7840
:103FE00004000D004E1C002B0AD0032B0BD103A99B
:103FF000280025F07AF903990600206B24F07FFC55
:10400000300004B070BD012B07D18E1C4978042903
:10401000F6D0006B06F000FFF2E7042B0BD14B78D3
:104020008978006B0902194324F0B1FC280025F0BF
:1040300097F90600E4E7052B15D14379042B04D04A
:104040002649006B24F0AFFCF0E788784B7800023B
:10405000184303A921F051FF0399246B09F08AFB4F
:1040600001002000EEE71A000A3A0F2A09D803A936
:10407000280022F097FC039906002000FFF778FF44
:10408000BEE7082B0CD103A9280025F024F9039BD7
:10409000226A9B0006009958206B24F084FCAFE74D
:1040A00003AB02AA01A9280025F08BF905000299AB
:1040B000206B06F065FE019B094A9B009B58290076
:1040C000039A20009847A368002B04D0E368002BD4
:1040D00001D1029BE360039E92E7C046F0EC020030
:1040E00070E40200F7B506000192FFF777FF04279E
:1040F0000500019B9D4200D1F7BDA91C30006C78E2
:10410000FFF76CFF2F3CE4B205003900082C01D802
:10411000024B195D306B24F0B9FDEAE7038E030012
:1041200010B5024B672222F064FE10BDB773020087
:1041300010B5024B972222F05CFE10BDC151000069
:10414000F7B50F0011001A00C38A8579868A01939A
:104150000023040083718382C382104B22F049FE46
:10416000A368002B18D1E18A002908D0A38A002B6C
:1041700005D1206B24F0ACFD206B24F029FCA38A30
:10418000E28A3900200022F063FC6B1E9D416B46E1
:104190009B88A571A682E382F7BDC046DD4D000075
:1041A000836870B504000D00002B09D1110005488B
:1041B00024F01FFFA060200029000C3022F090FEA8
:1041C00070BDC046D0F80200F0B591B06B46040057
:1041D00005920D001B7DA14A4371E16200212B78FD
:1041E0000161072B3AD1059B012B06D90200836B95
:1041F00008321B680599406B9847AB681800089314
:1042000025F0AEF863790890032B0FD10D90402173
:104210000DA825F0BEF8A36B02009B680D99606B9A
:104220009847A368E882002B00D0D3E0089825F0D7
:1042300097F808900378002B4ED00A3B0F2B46D8F6
:104240000DA922F0AFFB0D9B854A934244D00AD8BA
:104250000125844A93420DD0834A08992000FFF734
:104260009FFF11B0F0BD814A934202D0804A0325DE
:10427000F0E70025089825F073F81821089008A8A1
:1042800025F087F8089B07900693069B079A9342B0
:1042900024D16379012B15D9A36B29005B68606B6E
:1042A00098476379042B0DD10023E06A03950293AC
:1042B000C18A626B0191009393680521D2680069FD
:1042C00001F010FDA368002B00D083E0C9E70100D6
:1042D000684A2000FFF764FF0225CBE7069B08939E
:1042E0001B78222B04D1069825F03AF80690CCE7EB
:1042F0001F2B01D0604AB0E709A9069825F03AF8CB
:1043000003780600432BF5D125F02AF8099B984243
:10431000F0D109A9300025F02DF8037807000A3BF9
:104320000F2BE7D825F01CF8099B06009842E1D036
:104330000378472BDED125F013F8099B9842D9D199
:104340000AA9380022F02EFB300025F00EF89F213C
:104350000B900BA825F01DF801000B9824F0F4FF3A
:10436000BD220A9B0600920093421BD1012804D172
:104370000B9803780A3B0F2B01D9404A6DE7266959
:10438000731C2361059B012B21D90DA922F00AFB87
:10439000A36B0D9ADB683100606B9847002816D13B
:1043A000374A5AE7374A93421AD1012803D10B986A
:1043B0000378032B01D0344A4FE7059B012B06D924
:1043C000666B24F0A1FF0100300024F0C4F8A3685C
:1043D000002B88D0200008990C3022F081FD40E7A6
:1043E0002A4A934222D1012803D90B980378032B40
:1043F00001D0274A31E7059B012BE8D90CA924F00D
:1044000074FF01270B900B980378032B01D0214AEE
:1044100023E70DA924F069FF01370B900D9A0C9941
:10442000606B24F09FF8BE42EDD1D0E7059B012BD5
:10443000CDD9032800D95DE70B9B18000D9324F01C
:104440008FFF0E9024F08CFFA36B0F901F6932003A
:104450000DAB0A99606BB847B9E7C04640900300BE
:10446000D30200006A0200006490030025030000EC
:104470007D0300007190030099900300BC9003003D
:10448000D89003005A020000E89003008702000061
:10449000049103002991030010B5024AFFF780FE42
:1044A00010BDC0464B910300F0B587B000920A00E2
:1044B0000493531E9A410D0006000499009805923A
:1044C00024F042FF2C1E019009D02B7800243A2BB7
:1044D00005D102002100306B24F06BFC2C00019B05
:1044E000009F013B0393059B0293049B9F421ED1B7
:1044F000002C39D1019A059B944663441900306B16
:1045000024F04BFC002D3CD1009B9F422AD0009B05
:104510009C4239D1200024F028FF00220100300005
:1045200000F038F8009824F01BFF0090ECE73B788F
:104530003A2B07D1002C10D1039A0299306B24F04A
:1045400038FC3C00380024F00BFF029B07000133CD
:104550000293039B013B0393C7E70D4A39003000E8
:10456000FFF71EFE07B0F0BD002DCDD0AC4208D144
:10457000200024F0FAFE00220100300000F00AF8CA
:10458000C2E700222900F8E700220099C7E7C046E9
:10459000768E0300F0B50B7817001A000A3A85B042
:1045A00004000D000F2A10D803A9280022F0FAF900
:1045B00003992000002F01D0022F03D1FFF7EAFC5E
:1045C00005B0F0BDFFF7D4FCFAE76A4A192B00D812
:1045D000CBE01A3B2A2B00D182E005DC062B08D069
:1045E000292B11D0644AC0E02B2B00D194E0972BEB
:1045F000F8D1002F00D0B7E003A9280024F0BAFEBC
:104600000200039B00219BE002A9280024F0B2FED7
:104610000600022F03D001002000FFF7DFFC30006E
:1046200024F09EFE0299060022F0B3F90028D9D1A9
:104630003378A22B13D1300003A924F09BFE06008F
:10464000300024F08DFE039A0190904207D2022F91
:1046500003D031002000FFF7C1FC019EF0E7337862
:10466000482B21D1022F06D1206B24F03CFA206B7D
:1046700024F0F8F90EE0300024F077FE010020006D
:10468000FFF7ACFC206B012FF2D124F000FA206B75
:1046900024F0D0F9300024F063FE029922F079F979
:1046A000002800D08CE79DE7492B9BD1300024F0F7
:1046B0005CFE03A922F076F9012F07D1206B24F0CC
:1046C000DCF90399206B24F08DF9E3E7022F02D186
:1046D000206B24F0F1F90399206B24F0B6F9D9E7A7
:1046E00003A9280024F046FE0399060022F051F9A0
:1046F000002800D076E7002F36D1350003A9280026
:1047000024F038FE060024F02BFE0378A92B1BD1E1
:1047100000231A00310013E0002F25D103A928003F
:1047200024F028FE0399050022F033F9021E02D07E
:104730003B003A0066E72B78A62BDFD00300290068
:104740002000FFF7B1FE3BE7AA2B05D103A924F017
:1047500011FE039B0200DDE7C12B00D142E724F0EC
:10476000FFFD320003004DE7044A29002000FFF757
:1047700017FD25E7178E03002F8E03004A8E0300D6
:10478000F0B5170085B0040008000D0024F0E8FD26
:104790003900060022F0FDF8019000281ED0237990
:1047A000002B16D0E36A1E78002E12D13749200064
:1047B000FFF7DEFB29002000FFF710FC330032007A
:1047C0000121206B24F034FB206B24F06AF905B042
:1047D000F0BD29002000FFF701FCF5E733786D2BD1
:1047E0001DD1290001222000FFF7D4FE300024F063
:1047F000BCFD4378811C4E3BDBB218260A2B01D846
:10480000234AD65C2000FFF7E9FB3100206B24F03F
:104810003DFA022229002000FFF7BCFED7E76E2BED
:104820002ED1300003A924F0A5FD06000700039B4C
:104830009F421FD101992000FFF7D0FB206B24F08D
:104840001CF9002229002000FFF7A4FE019BB342BF
:10485000BDD0300024F084FD019B0500834202D0CE
:10486000206B24F00AF9310000222000FFF792FEAD
:104870002E00EBE7380024F073FD01970700D6E720
:1048800031002000FFF7AAFB019AC3E749020000AC
:104890000C8E0300F0B50B788FB00A3B0400019139
:1048A00003920F2B00D90DE1080024F059FD037885
:1048B000432B00D006E1019824F052FD0BA924F00F
:1048C00059FD037842780A3B1B021343CE22920023
:1048D000934200D0F6E024F043FD03780500472B17
:1048E00000D0EFE024F081FD002800D0EAE02800AD
:1048F00024F036FD0B9B984200D0E3E0280024F022
:1049000034FD9F210C900CA824F043FD0C9B070064
:104910000293012302980D9324F022FD05000C90D0
:10492000874200D1C3E024F01BFD0C9087420ED0DB
:104930000378032B00D0C5E00DA924F0D6FC0D9B15
:104940000C90002B00D1BDE0874200D0BAE0029B62
:104950001B784533DBB2022B00D8B3E02B7845330C
:10496000DBB2022B00D8ADE00B9B1800049324F0BF
:10497000F7FC039B0600984200D100260D9B276997
:104980000593238B27830693638B0793E38B08930D
:104990007B1C03936B469B896383A38BE3833B1D43
:1049A00023612B78D91E03930B00591E8B41099369
:1049B000039B032B03D029002000FFF70FFB029974
:1049C0002000FFF70BFBF91C206B24F0A1F8B91CA9
:1049D000206B23F060FF206B24F04FF80022019938
:1049E0002000FFF7D7FD04992000FFF7F7FA791CA4
:1049F000206B23F050FF0599206B23F080FF1221DC
:104A0000206B24F043F9206BF91C23F044FF039B37
:104A1000206B032B4FD024F03AF8206B24F04CF895
:104A2000059B1921002B00DA1A21206B24F02EF9A6
:104A3000BA1C0121206B24F077F86B461B8B3500E4
:104A400023836B469B8B63836B461B8CE383002E17
:104A500018D0206B24F025F8039B032B02D0206B89
:104A600024F01FF831002000FFF7B8FA2569206B09
:104A70006B1C2900236124F04BF80999206B01314C
:104A800023F051FE3900206B23F005FF206B24F04A
:104A900008F8039B032B02D0206B24F002F8002EB1
:104AA00003D02900206B23F0F6FE0FB0F0BD2E4B93
:104AB000029D02934BE723F0E0FF29002000FFF75F
:104AC0008DFAADE7238B25690293638B6E1C0493EB
:104AD000E38B66830593AB1C0693A38B0198E3835A
:104AE000224B2B432383EB1C236124F039FC010070
:104AF0002000FFF773FA07000121206B24F065F80E
:104B00003100206B23F0C7FEA91C206B24F070F845
:104B1000002201992000FFF73DFD39002000FFF73A
:104B20005DFA0700206B23F0F9FD002803D1310066
:104B3000206B23F0EDFFA91C206B23F0ACFE206B53
:104B400024F062F86B461B8923836B461B8A6383C0
:104B50006B469B8AE383039BBB42A2D039002000B3
:104B6000FFF73CFA9DE7C0468DCC03000080FFFFB5
:104B7000F0B589B0050005910492009301910029D8
:104B800004D09F2105A824F004FC019000231E00FE
:104B90001F00059C03930293019BA3421AD1002E90
:104BA0000DD0029B002B00D079E0286B23F010FF82
:104BB000039B002B00D077E0286B23F009FF049BB8
:104BC000002B00D175E033003A000099286B24F0E7
:104BD00038F90AE02378BB2B14D1BA3B1E4206D029
:104BE000374A21002800FFF7DBFA09B0F0BD0123A6
:104BF00020001E4324F0B9FB0290200024F0B0FBFB
:104C00000400C9E7BC2B0BD1BA3B1E4201D02D4A90
:104C1000E7E7022320001E4324F0A7FB0390ECE704
:104C2000BD2B2AD1200024F0A0FB040024F098FB27
:104C30000378C12B0BD128000622210021F058FF58
:104C4000009B20000133009324F08AFBD6E72378F1
:104C50000A3B0F2B01D91C4AC3E707A9200021F00A
:104C6000A1FE04000799286B23F091FE2100280083
:104C7000FFF7B4F9013704008EE7002E01D0134A84
:104C8000AFE7002F01D0124AABE721002800FFF761
:104C9000A5F9009B0400013300933E007CE70299D4
:104CA0002800FFF79BF983E703992800FFF796F99F
:104CB00085E733003A000099286B24F0B9F894E7AF
:104CC000689103007F91030097910300B89103005E
:104CD000D3910300F0B589B00400039103A83D21EE
:104CE00024F057FB0027E36A02905E7D0398029B45
:104CF000834215D1180024F038FB029B03901B78E7
:104D00000100320020001D2B4FD122F0ADF805002C
:104D1000013F4DD229002000FFF73CF909B0F0BD5A
:104D200005A924F027FB6821039003A824F031FB98
:104D300006A90500039821F035FE9623069AFF3355
:104D400001909A423DD1854207D8214A0021200096
:104D5000FFF726FA059B0393C8E7019824F000FBB0
:104D60008542F2D107A9019821F01CFE079B194A40
:104D7000934224D0184A9342E7D10426EAE707A9D0
:104D800021F010FE07990390206B23F02BFE03986F
:104D90008542F4D10599280021F0FBFD0028D9D1E6
:104DA00029002000FFF71AF9D4E722F0FCF8AEE75B
:104DB000002301211A00206B24F03AF8A8E701260D
:104DC000C8E703992000FFF709F901370390DEE7F0
:104DD0002F8F03006F02000062020000F7B50A780F
:104DE0000E00130008215D3B8B43DBB20400002B57
:104DF00002D101338371F7BD13005E3B8B43DBB2FD
:104E0000002BF8D013000A3B0F2B2FD95C2A11D1AD
:104E100001A9300024F0AEFA070024F0A1FA019BAA
:104E2000984205D024F09CFA019B0500984208D1D5
:104E3000002506E0300024F098FA070024F090FAEC
:104E4000050001A9380021F0ADFDA379002D02D0A5
:104E50002A78002A0CD1002BCDD1E38A002BCAD0AE
:104E6000184A31002000FFF79BF9C4E73700DFE75D
:104E7000002B1ED0A38A01339BB2A382012B09D140
:104E8000E18A206B002911D023F022FF0021206B42
:104E900023F038FF29002000FFF7A0F8206B0199CC
:104EA00023F075FD206B23F039FFA4E723F090FD7C
:104EB000ECE7E38A29000133E3822000FFF78EF854
:104EC00099E7C0464D8F0300F0B504000E00056958
:104ED00087B002936B1C0393AB1C03612900006B2A
:104EE000170023F04FFE200021F064FD3100200068
:104EF000FFF774F8206B23F08DFE691C206B23F004
:104F000007FE2900206B23F0C6FC206B23F0DDFF99
:104F10002669731C2361029B9F4218D1A38B206BCF
:104F2000013BA38323F046FE206B23F0D3FF0399BC
:104F3000206B23F0B0FC0C9B002B03D01900200049
:104F4000FFF74CF83100206B23F0A5FC1BE0380084
:104F500024F00BFA00230593236905000193013324
:104F600023610378002B10D124F0FAF924F0F8F92A
:104F7000029B834224D03C4A29002000FFF710F90D
:104F8000A38B013BA38307B0F0BD07008B2B07D198
:104F900024F0EBF9070024F0E3F905A921F002FD64
:104FA000206B23F06AFD39002000FFF717F821215C
:104FB000206B23F06BFE019A0021206B23F0B4FDDF
:104FC000280024F0CDF905990700002948D1206B6D
:104FD00023F067FD0025059BAB4209D02569206BB6
:104FE0006B1C2361290023F0D9FD200021F0E2FC95
:104FF00039002000FEF7F2FF059B0700002B02D0CE
:10500000206B23F007FE206B23F029FE059B002B6D
:1050100019D00E21206B05F0FFFE2900206B23F034
:105020003AFC0E21206B05F0F7FE05992000FEF7F3
:10503000B1FF20000599FEF7BFFFA38B206B013B5A
:10504000A38323F0B7FD3100206B23F061FD0199AC
:10505000206B23F020FC0121206B23F064FB5AE736
:105060002000FEF797FFB5E7F5910300F0B587B094
:10507000039143790400012B06D1C36A1B78002BEE
:1050800004D11A4AFFF78CF807B0F0BD039B6921E1
:1050900003A8019324F07DF902900398029B8342B8
:1050A000F2D005A90B2721F07DFC02AB059EFF186D
:1050B00003903A003100E06A21F0FBFB3B780500E9
:1050C000002B0DD032000100E06A21F01FFC2B788C
:1050D000074A002BE1D101992000FFF761F8DCE7D6
:1050E0000378042BD9D0034AF5E7C0469A8F030012
:1050F000BF8F0300DD8F0300F0B587B003914479C3
:105100000500012C09D1019103A8692124F041F97E
:1051100002900398029B834201D107B0F0BD05A91C
:105120000B2721F03FFC02AB059EFF1803903A00CD
:105130003100E86A21F0BDFB3B78002B08D10378F1
:10514000012B05D0074A01992800FFF729F8E0E76D
:1051500004703100E86A21F0D0FB0028D9D0047037
:10516000D7E7C0467B8F030010B5084B428B040085
:105170009A4202D1064AFFF713F8A28BE38B618BA8
:10518000D21A206B05F06EFE10BDC046FFFF000076
:10519000178F030010B5084B028B04009A4202D10E
:1051A000064AFEF7FDFFA28BE38B218BD21A206B00
:1051B00005F058FE10BDC046FFFF0000028F03003F
:1051C000F7B50B7804001A000A3A0E000F2A08D827
:1051D00001A9300021F0E6FB01992000FEF7ECFE6A
:1051E000F7BD432B44D16946300024F0C3F80100D9
:1051F0002000FEF7F3FE03780500A22B10D101A9D1
:1052000024F0B8F80500280024F0AAF8019B070054
:10521000984205D029002000FEF7E0FE3D00F2E7AD
:105220002B78482B16D1280024F09FF8010020008D
:10523000FEF7D4FE0500206B23F05FFC00992800E8
:1052400021F0A7FB0028CBD1214A31002000FEF736
:10525000A7FFC5E7492BF7D1280024F086F801A95C
:1052600021F0A0FB01990500206B23F02FFCE5E75E
:10527000442BE9D1080024F0B8F80028E4D130002C
:1052800024F073F8060024F070F8050001002000F7
:10529000FFF796FF280024F063F80378A92B9FD02E
:1052A000AA2B0ED101A924F065F8019B05009842B4
:1052B00096D020002900FFF783FF280024F050F843
:1052C000F3E7C12BC0D001002000FFF779FF87E78B
:1052D000908E0300F7B502260D00C16A0400097D17
:1052E000314005D0344A29002000FEF759FFF7BDB0
:1052F0000191297808000A380F281DD8280001A933
:1053000021F050FBA279E36A002A03D01A8B013204
:105310001A8302E0DA8A0132DA8201260199002931
:10532000E5D06B46DF1C3A00E06A21F0C2FA3B7818
:10533000002B3CD1214AD6E71A32914204D12800F1
:1053400024F013F801A9DBE71A33994223D1A3799A
:10535000002BC7D101272800A77124F046F80326A7
:105360000028DBD1280024F000F80278E36A0A3A2A
:105370000F2A09D828001A7D17431F7523F0F5FF5F
:1053800001A921F00FFBC9E71A7D280017431F75FB
:1053900023F0EBFFF2E7280023F0E7FF01A921F05B
:1053A00001FBE36A1A7D16431E750526B6E7022344
:1053B000467003709BE7C0461890030027900300D7
:1053C000C36A70B51B7804000D00072B04D00C4A8B
:1053D0000021FEF7E5FE70BD1100280021F0D9FA8A
:1053E000002807D00E21206B05F016FD206B23F05E
:1053F00032FDF0E729002000FEF7F0FDF6E7C04699
:10540000FE8F0300C36A70B51B7804000D00072BE4
:1054100006D0022B04D0174A0021FEF7C1FE70BD52
:105420001100280021F0B5FA061E07D00E21206BCE
:1054300005F0F2FC206B23F029FDF0E72B78C42B5C
:1054400012D1280023F091FF01002000FEF7C6FDD5
:105450003100206B23F0B9FB206B0E2105F0DCFC42
:10546000206B23F022FDDAE729002000FEF7B6FDCD
:10547000E0E7C04614920300F0B50D0085B00400CB
:105480001100280021F085FA071E05D00021206BAD
:1054900023F038FC05B0F0BD2B784E2B0BD1206BE0
:1054A000012123F02FFC29002000FEF797FD206B3F
:1054B00023F034FCEEE7B32B61D1280023F055FF35
:1054C000050023F04DFF02900378B62B4DD103A9C0
:1054D00023F050FF039B0290984203D09D2102A825
:1054E00023F057FF2B784E2B20D103990298266B7F
:1054F00023F02AFF411C300023F004FC2900200087
:10550000FEF76CFD206B23F009FC0127029E039B34
:105510009E4210D1002FBDD131000298246B23F0A0
:1055200013FF411C200023F004FCB3E729002000F6
:10553000FEF754FDEAE73378310020000193FEF7CF
:105540004DFD019B0600002F0BD04E2B05D00F4ABE
:1055500029002000FEF724FE9CE7206B23F0DEFBF1
:10556000D5E74E2BD3D10A4AF2E72B7804224E2BF3
:1055700000D005222900200021F0BAFA8AE729008C
:105580002000FEF72BFD0121206BCCE7A88E030045
:10559000CB8E0300F0B504000D00002662711100EF
:1055A000C56206612A0087B0006B05F057FB62797F
:1055B000012A01D1EE832E84AE683378542B0AD1B0
:1055C000300023F0D2FE01002000FEF707FD206B23
:1055D00023F041FC2AE02B78002B08D13100200079
:1055E000FEF7FCFC0E21206B05F016FCEFE7072B05
:1055F00021D1300023F0B4FE63790500012B07D1DF
:1056000000230100A37140225D4B200021F0F1FB3B
:10561000280023F0A5FE23F0A3FE01002000FEF7E2
:10562000DDFC206B23F07AF80028DBD0206B23F020
:1056300048F807B0F0BD022B17D1012A07D100238B
:105640004732A37131004F4B200021F0D2FB3000D4
:1056500023F086FE01002000FEF7C0FC2B7D5B07D7
:10566000B5D5206B23F01DFABCE7033B032B50D8C4
:10567000300023F075FE05A923F07CFE23F070FEB8
:1056800067790390012F09D10B2202ABD2183900A0
:10569000E06A21F00EF902230370EF822B78032BCE
:1056A00020D10021206B23F020FB2B78062B27D163
:1056B000206B23F08DF901212000FEF759FC206BAF
:1056C00023F086F9206B23F083F90023059A0093D9
:1056D00003993300200021F01EFF2B78062B00D009
:1056E00075E77FE7042B04D10021206B23F00AFB30
:1056F000DBE7052BD9D10021206B23F01AFBD4E77F
:1057000020000121FEF734FC0121206B23F05DFA1B
:10571000DBE7012A06D105AA1B49280021F0C9F8B8
:105720000223037005A9A86821F03CF9912120000B
:105730008900FEF71DFC15492000FEF72BFCE989C6
:10574000206B23F024F9922120008900FEF722FC2F
:10575000A86823F005FE23F003FE01002000FEF7F9
:105760003DFC0949280021F094F80378022B00D170
:1057700038E742880449206B22F0E3FF27E7C04660
:10578000457102003971020031020000430200003D
:10579000F8B5164B0400A8331B681600002B24D163
:1057A000056901226B1C03612B0021F03CFEFC21EA
:1057B0000700FF31206B22F0F1FF3100380021F0AB
:1057C000E8F8061E09D139002000FEF707FC330077
:1057D00032000121206B23F02BFB0121206B23F0F1
:1057E00047FB2900206B23F056F8F8BD982E0020C7
:1057F000F0B585B005000E000192FEF7EFFB0378CF
:105800000400A22B03D101A923F0B4FD0400EB6A2C
:105810001B78072B6FD1337872780A3B1B02134336
:10582000DA229200934266D12378472B63D120007D
:1058300023F0DBFD00285ED04A492800FEF798FBE4
:105840000121EA6A936A928C002A05D1464A210016
:105850002800FEF7A5FC51E05878084211D059689D
:105860002800FEF785FB0199200023F06DFD02283A
:105870000ADC0023286B1A00022123F0D9FA200049
:1058800036E0013A0833DFE7200023F069FD0378B2
:10589000492BEED1200023F063FD23F061FD037856
:1058A000472BE6D1200023F05BFD070023F058FDD5
:1058B0000600380023F059FD03A921F073F803997D
:1058C0000122286B23F09AF8300023F08EFD00218E
:1058D000884203D1300023F048FD0100002301225B
:1058E0002800FFF745F9200023F03AFD23F038FDAA
:1058F00023F036FD0400019B9C4201D105B0F0BDB0
:10590000200023F02DFD019B0600984224D023782F
:10591000492B21D10378472B1ED1200023F025FDF0
:105920000700300023F061FD0024A04203D13000C5
:1059300023F01BFD040003A9380021F033F80022F6
:105940000399286B23F05AF8280000230122210034
:10595000FFF70EF93000CBE721002800FEF73EFBF1
:10596000C8E7C04631020000EA8E0300F0B59BB0E4
:105970000BAC06900F00150000213C2220001E00F9
:105980001DF0E6FF069B0B975B68267123620123DF
:105990005B4223836383069B186823F0E1FC23F0BA
:1059A000B3FC6062800020F07EFD0022069BA062B6
:1059B00000951B681100200021F006F822F06BFE14
:1059C0000023029020630393002633001FE0FFF7BB
:1059D000E1FD15E0A268002A1DD1A16AB200555868
:1059E000002D13D02A69002A10D121F0ACFF6B7D65
:1059F0002861012229002000042BE8D1FEF7E4FBF6
:105A00002369039A9A4200D2039301230136626A02
:105A100007929642DED3002BD6D1049301339C46E5
:105A2000079B049A934202D00D9A002A3CD0039916
:105A3000029822F035FE0025149B04939D4204D267
:105A40000D9B0493002B00D1DFE00D9B0393002BF3
:105A50000CD0169B0EA8996821F042FA169B0E9A5C
:105A60000393DB890B990D9805F054FD029822F001
:105A70001FFE1898002801D024F0C3FA00240698CD
:105A800023F0BDFC159B1B681D69149B02939C426F
:105A900000D2FBE0159820F023FD0D99002900D1DC
:105AA000FFE00800FBF74CFC0499159B8900CB58DC
:105AB000002B39D06046197D01421CD09C8C601EA1
:105AC000C000002C17D00226996A09184D7835427B
:105AD0002ED0002A0FD00F005088167805905068FD
